:020000040800F2
:10000000300A0020010100085B1C0008B11800083C
:10001000591C00086D0100087D2100080000000047
:10002000000000000000000000000000571D000854
:100030006F01000800000000811C0008591D000825
:100040001B0100087D1C00081B0100081B010008A3
:1000500071010008831C00081B0100081B01000837
:100060001B0100081B0100081B0100081B01000800
:100070001B0100081B0100081B0100081B010008F0
:100080001B0100081B0100081B0100081B010008E0
:100090001B0100081B0100081B0100081B010008D0
:1000A0001B010008BD1D00081B010008B11D000850
:1000B000C91D0008D51D0008E11D00081B0100082E
:1000C0001B0100081B0100081B010008851C00081B
:1000D0001B01000859210008652100087121000852
:1000E0001B0100081B0100081B010008DFF80CD0F1
:1000F00000F02AF800480047C9260008300A00200E
:100100000648804706480047FEE7FEE7FEE7FEE7B1
:10011000FEE7FEE7FEE7FEE7FEE7FEE7691D0008F3
:10012000ED00000840EA01039B0703D009E008C97D
:10013000121F08C0042AFAD203E011F8013B00F8AC
:10014000013B521EF9D27047064C074D06E0E068AD
:1001500040F0010394E8070098471034AC42F6D30E
:10016000FFF7C8FF4C2800086C280008FEE770471E
:1001700000F0AEB8064A0021D16106490A6942F092
:1001800002020A614861086940F040000861704756
:100190001006002000200240044B0022DA61044ACD
:1001A000136943F0010313610180704710060020BA
:1001B0000020024014480022C168CB06134904D530
:1001C000CA6942F00202CA611022C3685B0705D502
:1001D000CB6943F00103CB6142F00402C369DB0742
:1001E00007D0CB6943F00403CB61C16921F0010161
:1001F000C161A2F58071013901D0C2607047C16947
:1002000021F00101C161704700200240100600206A
:1002100010B590F821100024022903D00421816335
:1002200001243DE001680A6822F00E020A600168BC
:100230000A6822F001020A601A4A0168914201D15B
:10024000012121E0174A1432914201D110211BE013
:10025000144A2832914201D1891515E0114A3C32E5
:10026000914201D189140FE00E4A5032914202D1DD
:100270004FF4803108E00B4A6432914202D14FF4CE
:10028000801101E04FF08071064A083A5160012167
:1002900080F82110002180F82010416B01B18847BF
:1002A000204610BD0800024070B5044600F07AF9FF
:1002B0000546601C02D004480078044400F072F93E
:1002C000401BA042FAD370BD6400002070470000BC
:1002D0002DE9F0413E4DE8683E4CC0064FF0FF3737
:1002E0004FF0000602D4E868400708D5D4F808802B
:1002F000A760FFF75FFF404600F06EF82670E868E1
:10030000800653D52020E8602078F8B120780128B5
:100310001DD02078022833D06068401E606060687D
:10032000B0B3A068801CA060A06821696269090C54
:1003300041EA0241120C21616261296921F0010147
:1003400029612169626989B2FFF726FF2EE06068A2
:10035000401E6060606868B1A068FFF7B7FFA068E2
:1003600000F58060A060296921F002012961FFF792
:1003700001FF1BE03846A7602670FFF7A7FF15E0D6
:10038000286920F0040028610020FFF79FFF0CE09F
:10039000FFE72078032817D020780428A06815D01C
:1003A000B0F10600FFF792FFA760267020780028C2
:1003B00008D1286920F007002861286920F4A0509E
:1003C00028612676BDE8F081A068EBE7801EE9E7AA
:1003D0000020024010060020704700002DE9F84F71
:1003E000DFF890A100220AF1040B144601274FF018
:1003F0000F090BF1040E00BF0B6807FA04F52B4040
:10040000AB4274D1DFF870C14E68A6EB0C086645AC
:100410002BD00DDC032E34D005DC36B3012E19D0E1
:10042000022E2FD11BE0112E16D0122E2AD119E048
:10043000B8F5881F19D006DCB8F5803F15D0B8F59F
:10044000801F1FD111E0B8F5001F0ED0B8F5041FB2
:1004500018D10AE0CA6815E0CA68121D12E0CA681D
:1004600008320FE0CA680C320CE08A682AB1012A0F
:100470004FF0080203D0456104E0042202E0056168
:1004800000E00022FF2B01D8064601E000F104063F
:100490004FEA840501D9A5F12005D6F800C009FA74
:1004A00005F82CEA080C02FA05F54CEA050CC6F82A
:1004B00000C04D68ED0057D5304DAE6946F00106DD
:1004C000AE61AD6924F0030605F0010500952C4DE1
:1004D00006EB050CDCF80850A6074FEA167809FA77
:1004E00008F6B543274EB04202D1002610E03BE0AB
:1004F000254EB04201D101260AE0244EB04201D17E
:10050000022605E0224EB04201D1032600E0042677
:1005100006FA08F62E43CCF808604D68DAF8006059
:10052000ED03554601D51E4300E09E432E604D6805
:10053000DBF80060AD035D4601D51E4300E09E433D
:100540002E604D68DEF80060ED02754601D51E4351
:1005500000E09E432E604D68AD020E4D2E6801D521
:100560001E4300E09E432E60641C102CFFF444AF39
:10057000BDE8F88F00040140000011100010024097
:100580000000014000080140000C01400010014043
:10059000001401400C0401400AB1016170470904D4
:1005A000FBE70000014880687047000064000020FD
:1005B000024881680278114481607047640000201D
:1005C000074810B5016841F010010160032000F0F8
:1005D000B5F8002000F006F800F024F8002010BD67
:1005E0000020024070B50D4D04464FF47A71287812
:1005F000B1FBF0F00A490968B1FBF0F000F077FEBA
:1006000048B9102C07D200222146501E00F076F87F
:1006100000206C6070BD012070BD000064000020EF
:10062000700000202D4808B5816941F00101816109
:10063000816901F001010091C16941F08051C161FE
:10064000C06900F080500090032000F077F800228D
:1006500011466FF00B0000F051F8002211466FF0C8
:100660000A0000F04BF8002211466FF0090000F07C
:1006700045F800221146501F00F040F800221146B4
:10068000101F00F03BF800221146901E00F036F8D3
:1006900000221146501E00F031F8002211460120C0
:1006A00000F02CF8012000F01DF800221146042073
:1006B00000F024F8042000F015F80022114605206F
:1006C00000F01CF8052000F00DF80548416821F005
:1006D000E06141F00071416008BD0000001002407F
:1006E0000000014000F01F020121914040098000FC
:1006F00000F1E020C0F8001170470000F0B40E4B8C
:100700001B680C46C3F30223C3F10705042D00D96F
:100710000425191D072901D2002300E0DB1E012654
:1007200006FA05F1491E214099409E40761E16406A
:100730003143F0BC01F092BA0CED00E0064900F044
:10074000070208684FF6FF03184040EA0220034AF8
:1007500010430860704700000CED00E00000FA054F
:100760007047000010B5054C2068C00304D5FFF7A2
:10077000F7FF4FF48030206010BD000014040140EA
:100780002DE9F047DFF83C8105460E46D8F8000019
:1007900000F00700B0420CD2D8F8001021F0070199
:1007A0003143C8F80010D8F8000000F00700B0424C
:1007B00063D12878444C800705D56068A96820F08B
:1007C000F000084360602878C00745D068680128B9
:1007D00016D02168022816D0890700294DDA6168F1
:1007E00021F0030101436160FFF7DCFE6968074601
:1007F00041F2883001290FD00229814619D027E023
:1008000021688903E9E78901E7E700BFFFF7CAFE2E
:10081000C11B494501D918E081466068C0F38100D9
:100820000128F3D118E000BFFFF7BCFEC11B49450A
:100830000BD86068C0F381000228F5D10CE000BF3E
:10084000FFF7B0FEC11B494502D90320BDE8F08780
:10085000606810F00C0FF3D1D8F80010404601F09A
:100860000701B1420BD9016821F007013143016052
:10087000006800F00700B04201D00120E6E72878C8
:10088000400705D56068E96820F4E06008436060CF
:100890002878000706D56068296920F4605040EA8E
:1008A000C100606000F03CF86168084AC1F30311C0
:1008B000515CC840064908600020FFF793FE002005
:1008C000C4E7000000200240001002403428000865
:1008D0007000002001480068704700007000002090
:1008E0000448054900684968044AC1F30221515C83
:1008F000C8407047700000200010024044280008E3
:100900000448054900684968044AC1F3C221515CA2
:10091000C8407047700000200010024044280008C2
:1009200012A185B00FC98DE80F0014A0144A006809
:1009300004905168134801F00C03042B10D0082BCD
:100940000ED1C1F38343C9031DF803000AD55168D2
:1009500004AAC1F34041515C0A4A5043B0FBF1F094
:1009600005B0704708494843FAE700000203040550
:10097000060708090A0B0C0D0E0F101001020000EB
:100980000010024000127A0000093D002DE9F84FE6
:1009900004460078B94DC00748D06868C0F38100AC
:1009A000012807D06868C0F38100022809D168686F
:1009B000C00306D52868800338D5606800286FD04A
:1009C00034E06068B0F5803F0BD010B1B0F5A02FD7
:1009D00011D0286820F480302860286820F4802016
:1009E00002E0286840F480302860606888B1FFF732
:1009F000D9FD064609E0286840F480202860F0E729
:100A0000FFF7D0FD801B642875D828688003F7D5D0
:100A10000CE0FFF7C7FD064605E000BFFFF7C2FD8B
:100A2000801B6428F0D828688003F7D42078944E7F
:100A300080074FF001094FF000083BD5686810F0BF
:100A40000C0F07D06868C0F38100022809D16868DC
:100A5000C00306D42868800714D5206901281FD157
:100A600010E02069B0B1C6F80090FFF79BFD074683
:100A700005E000BFFFF796FDC01B0228C4D8286818
:100A80008007F7D52868616920F0F80040EAC100C6
:100A900028600FE0C6F80080FFF784FD074606E0F7
:100AA000E9E000BFFFF77EFDC01B022823D82868BD
:100AB0008007F7D4207800072CD57248A169D9B1F6
:100AC000C0F80090FFF76EFD074604E0FFF76AFDEF
:100AD000C01B02280FD8686A8007F7D56A484FF410
:100AE000FA510068B0FBF1F0009000BF0098411E81
:100AF0000091FAD20EE080E0C0F80080FFF752FDCE
:100B0000074604E0FFF74EFDC01B022875D8686A4F
:100B10008007F7D42078400760D5E8690027C00037
:100B200008D4E86940F08050E861E869012700F0E6
:100B30008050009055480168C90513D40168834668
:100B400041F480710160FFF72DFD824606E000BF91
:100B5000FFF728FDA0EB0A0064284ED8DBF8000060
:100B6000C005F5D5E06801280AD008B1052813D0E2
:100B7000286A20F001002862286A20F0040002E0C0
:100B8000286A40F001002862E06841F2883B98B191
:100B9000FFF708FD82460BE0286A40F00400286257
:100BA000EEE700BFFFF7FEFCA0EB0A0159455AD85B
:100BB000286A8007F6D50CE0FFF7F4FC824605E0D2
:100BC000FFF7F0FCA0EB0A0159454CD8286A8007D2
:100BD000F6D41FB1E86920F08050E861E06988B37D
:100BE0006968C1F38101022945D00228C6F86080F6
:100BF00004D0FFF7D7FC044638E034E0FFF7D2FC1E
:100C0000074604E0FFF7CEFCC01B02282BD828685B
:100C10008001F7D4206AB0F5803F05D16868A168EB
:100C200020F4003008436860D4E90801084369688B
:100C300021F4741108436860C6F86090FFF7B2FCB5
:100C4000044606E015E000BFFFF7ACFC001B0228DD
:100C500009D828688001F7D50BE000BFFFF7A2FC98
:100C6000001B022802D90320BDE8F88F2868800104
:100C7000F4D40020F8E70120F6E70000001002405D
:100C80000000424280044242700000200070004098
:100C90007047000038B504460068426881684B061A
:100CA00005D4CB0703D0530601D5216C04E08B0794
:100CB00007D5130605D5616C01B02046BDE830406C
:100CC000084711F0600F3FD093063DD54B060AD57B
:100CD00094F85130032B34D0636D43F00403636503
:100CE000C36883680093890609D5616D41F00101ED
:100CF000616581680091016821F040010160606DCB
:100D0000002821D02068416821F0E00141600120E5
:100D100084F85100900718D02068416821F0030141
:100D200041600C4DE06C18B14563E06CFFF770FA60
:100D3000A06C002808D04563A06CBDE83840FFF7E0
:100D400067BAC1688068009038BD2046FFF7A0FFF1
:100D500038BD0000B11C000870B5040005D00025A6
:100D6000A56294F8510010B104E0012070BD204646
:100D700000F034F8022084F851002068016821F066
:100D800040010160D4E901010843D4E90312114391
:100D9000084361690843218B01F400710843E1694C
:100DA0000843216A0843A16A084321680860A069D2
:100DB000042101EA1040616A084321684860216803
:100DC000E06A08612068C16921F40061C16165655C
:100DD000012084F85100002070BD000010B50068AB
:100DE000144986B0884223D11348816941F4805167
:100DF00081618069114C00F480500490282000909B
:100E0000022001900320039069462046FFF7E6FA8E
:100E100000211020CDE90001029169462046FFF72C
:100E2000DDFA0748416841F0E06141F001014160AD
:100E300006B010BD0030014000100240000C01401F
:100E4000000001402DE9F84F04464068002698460E
:100E500017460D464FF00409B0F5827F01D1A06816
:100E600090B194F85000012819D04FF0010B84F88C
:100E700050B0FFF797FB009094F851004FF0000A34
:100E800001280ED002267FE084F8519013460A46CE
:100E90002046CDF8008000F031F9BDE8F88F02203F
:100EA000FBE7002D6FD0002F6DD084F85190C4F86F
:100EB00054A0A563A787E787C4F830A0A4F834A09E
:100EC000A4F836A0C4F840A0C4F844A0A0684FF429
:100ED0000047B84204D12068016821F480410160D4
:100EE00020680168490603D4016841F040010160AF
:100EF000E068B8B133E020688168C90706D0007B9C
:100F000005F8010BE08F401EE0870BE0B8F1000F01
:100F100023D0B8F1FF3F05D0FFF744FB0099411AF9
:100F200041451AD2E08F0028E5D11BE02068816896
:100F3000C90706D0C06825F8020BE08F401EE08785
:100F40000DE0B8F1000F08D0B8F1FF3F07D0FFF770
:100F500029FB0099411A414501D3032614E0E08F93
:100F60000028E3D16068B0F5827F0AD1A068B8425A
:100F700002D0B0F5806F04D12068016821F04001F3
:100F80000160606D00B1012684F851B084F850A072
:100F9000304682E72DE9F84F044690F850000026CD
:100FA000994617460D4601280DD04FF0010B84F8E5
:100FB00050B0FFF7F7FA804694F85100B246012886
:100FC00004D0022694E00220BDE8F88F002D7BD0EB
:100FD000002F79D0032084F85100C4F854A0256371
:100FE000A786E786C4F838A0A4F83CA0A4F83EA0E1
:100FF000C4F844A0C4F840A0A068B0F5004F04D1E4
:101000002068016841F48041016020680168490658
:1010100003D4016841F040010160E068B0F5006F61
:10102000606804D030B3E08E012823D03EE010B1D8
:10103000E08E01281AD135F8021B206805E02068EF
:101040008168890706D535F8021BC160E08E401E15
:10105000E0860BE0B9F1000F34D0B9F1FF3F05D0C5
:10106000FFF7A0FAA0EB080149452BD2E08E00283B
:10107000E5D11EE0216815F8010B087306E0206831
:101080008168890706D515F8011B0173E08E401EA3
:10109000E0860BE0B9F1000F14D0B9F1FF3F05D0A5
:1010A000FFF780FAA0EB080149450BD2E08E00283B
:1010B000E5D14B46012202212046CDF8008000F008
:1010C000FFFD10B1032613E011E0424649462046D9
:1010D00000F0DEFD18B101262020606508E0A06860
:1010E00018B92068C16880680090606D00B1012661
:1010F00084F851B084F850A0304665E72DE9F84FE8
:10110000044690F8500000260A9F9A4693460D46E2
:101110004FF0010801280ED0012084F85000FFF79D
:1011200041FA814694F85100616801280CD0B1F56C
:10113000827F07D102E00220BDE8F88FA16809B9DB
:10114000042801D00226BDE055B1BBF1000F07D045
:10115000BAF1000F04D094F85100012802D004E045
:101160000126AFE0052084F8510000206065C4F836
:1011700038B0A4F83EA0A4F83CA02563A4F836A09B
:10118000A4F834A02064606420680168490603D490
:10119000016841F040010160E068B0F5006F6068EF
:1011A00004D0E8B3E08E01283BD06AE010B1E08EB5
:1011B00001282ED1216835F8020BC860E08E401E50
:1011C000E08626E0B8F1000F0DD0E08E58B120681F
:1011D0008168890707D535F8021BC160E08E401E83
:1011E000E0864FF00008E08F58B120688168C90799
:1011F00007D0C0682BF8020BE08F401EE0874FF04D
:101200000108781C05D0FFF7CDF9A0EB0900B84222
:1012100046D2E08E0028D5D1E08F0028D2D136E02A
:10122000FFE7216815F8010B0873E08E401EE08689
:1012300027E000BFB8F1000F0DD0E08E58B1206854
:101240008168890707D515F8011B0173E08E401EE0
:10125000E0864FF00008E08F58B120688168C90728
:1012600007D0C0680BF8010BE08F401EE0874FF0FD
:101270000108781C05D0FFF795F9A0EB0900B842EA
:101280000ED2E08E0028D5D1E08F0028D2D13B4687
:10129000012202212046CDF8009000F011FD08B196
:1012A00003260FE04A463946204600F0F1FC18B10B
:1012B00001262020606505E0A06818B92068C16893
:1012C00080680090012084F85100002084F85000CC
:1012D000304631E74FF0E0210428086903D020F0C0
:1012E00004000861704740F00400FAE7704710B549
:1012F000401EB0F1807F01D3012010BD4FF0E024EB
:1013000060610F21601700F0A9FC0020A061072098
:101310002061002010BD10B5FFF7E8FF10BD704739
:10132000704730B590F83C20012A20D0012280F887
:101330003C20022380F83D3003685C6824F0700490
:101340005C6003685C680D682C435C6003689C68A3
:1013500024F080049C6003689C6849680C439C608E
:1013600080F83D20002180F83C10084630BD022066
:1013700030BD10B5040003D094F83D0010B107E073
:10138000012010BD002084F83C00204600F00CF83D
:10139000022084F83D00211D206800F027FD012077
:1013A00084F83D00002010BD08B5174A01681748B1
:1013B000914207D1816941F400618161806900F443
:1013C000006014E0B1F1804F0AD0114A914210D16F
:1013D000C16941F00201C161C06900F0020006E08C
:1013E000C16941F00101C161C06900F001000090D4
:1013F00008BD084A9142FBD1C16941F00401C161B5
:10140000C06900F00400F2E7002C01400010024027
:10141000000400400008004070B5044690F83C000D
:10142000012817D0012584F83C50022084F83D00A3
:101430002068826822F0770222F47F428260086886
:10144000502837D00DDC202859D005DC88B310286F
:1014500041D151E0022070BD302853D040283AD10C
:101460003FE060282ED070280BD0B0F5805F03D00D
:10147000B0F5005F2FD110E02068816821F00701EE
:1014800015E0CB68D1E90121206800F0E5FC216876
:10149000886840F0770088601DE0CB68D1E90121C1
:1014A000206800F0D9FC2068816841F480418160A7
:1014B00011E01EE0CA684968206800F0DFFC502196
:1014C000206806E0CA684968206800F0E8FC6021EE
:1014D000206800F0CBFC84F83D50002084F83C00EC
:1014E00070BDCA684968206800F0C8FC40212068C7
:1014F000EFE700212068ECE710212068E9E72021D0
:101500002068E6E730212068E3E7704770B50446BD
:10151000006801694FF00005C943890715D4C16807
:10152000C943890711D4E91E016101202077206891
:1015300080698007204602D0FFF7E7FF04E000F053
:1015400098F8204600F096F8257720680169C9438D
:10155000490717D4C168C943490713D46FF0040180
:101560000161022020772068806910F4407F2046C6
:1015700002D0FFF7CAFF04E000F07BF8204600F03D
:1015800079F8257720680169C943090716D4C1682D
:10159000C943090712D46FF00801016104202077C4
:1015A0002068C0698007204602D0FFF7AEFF04E044
:1015B00000F05FF8204600F05DF8257720680169AB
:1015C000C943C90617D4C168C943C90613D46FF00B
:1015D00010010161082020772068C06910F4407F65
:1015E000204602D0FFF791FF04E000F042F82046C9
:1015F00000F040F8257720680169C943C90708D180
:10160000C168C943C90704D1891E0161204600F0A1
:1016100032F820680169C943090609D4C168C94381
:10162000090605D46FF0800101612046FFF777FEBF
:1016300020680169C943490609D4C168C9434906FC
:1016400005D46FF040010161204600F015F82068D4
:101650000169C94389060BD4C168C943890607D407
:101660006FF0200101612046BDE87040FFF758BED1
:1016700070BD7047704770477047704770B502681B
:1016800004461068D168536910F00F0F50D003F072
:10169000010501F4907635435DD0C20705D0CA0537
:1016A00003D5E26B42F00102E263420705D5DA0797
:1016B00003D0E26B42F00202E263820705D5DA074B
:1016C00003D0E26B42F00402E263020705D5DA07B9
:1016D00003D0E26B42F00802E263E26B002A33D0EF
:1016E000800604D5880602D5204600F000FC20685C
:1016F0004069E16BC0F38010090700D428B320468D
:1017000000F0E7FB2068416949061AD5416921F0DC
:1017100040014161606BA0B11B494163606BFEF702
:1017200077FD002810D0606B416BBDE87040084722
:10173000830610D58B060ED52046BDE8704000F01C
:10174000D6BB2046FFF799FF70BD2046FFF795FFF7
:101750000020E06370BD030606D50B0604D52046C5
:10176000BDE8704000F0C6BC4006F3D54806F1D590
:10177000D168204621F04001D160202184F8391041
:1017800000F095F870BD0000C31E000870B504009D
:1017900004D094F83900002510B106E0012070BD96
:1017A00084F83850204600F023F8242084F83900CB
:1017B0002068C16821F40051C160204600F0E2FBBE
:1017C0002068016921F4904101612068416921F09C
:1017D0002A0141612068C16841F40051C160E5639C
:1017E000202084F8390084F83A00002070BD000001
:1017F000F0B50368274F0220002427490322274D14
:10180000460285B0BB4212D18B6943F480438B61A1
:101810008969039201F4804104910102CDE900102D
:1018200069462846FEF7DAFDCDE9006414E01C4F56
:10183000BB4218D1CB6943F40033CB61C969039231
:1018400001F4003104910421CDE9001069462846D5
:10185000FEF7C4FD08201AE0694628460294FEF708
:10186000BDFD05B0F0BD0F4DAB42FAD1CB6943F4DD
:101870008023CB61C9690C4D01F48021CDE903219E
:10188000CDE9006069462846FEF7A8FDE814CDE9D9
:101890000004E1E700380140001002400008014068
:1018A0000044004000480040000C01407047704771
:1018B000FEE700002DE9F041234886B0816941F040
:1018C00010018161816901F010010491816941F089
:1018D00020018161816901F020010491816941F059
:1018E00004018161816901F004010491816941F081
:1018F000080181618069154F00F008000490002202
:1019000001213846FEF748FEDFF844804EF2C40657
:10191000002231464046FEF73FFE00250220CDE979
:10192000025001240094694601943846FEF756FDA2
:101930000096CDE90145694640460394FEF74EFD09
:1019400006B0BDE8F0810000001002400008014030
:10195000000C0140114810B50F4901604FF482712D
:10196000416000218160C1604FF400720161C0E9F3
:1019700005122022C0E90721416281620A21C16269
:10198000FFF7EAF9002805D0BDE81040452104A082
:1019900000F0F5BB10BD000000300140F80300204E
:1019A0002E2E2F5372632F7370692E630000000078
:1019B00010B5174886B015490024C0E900148460AA
:1019C000C460046144618461FFF7D3FC18B1432112
:1019D00010A000F0D4FB4FF48050009069460C48F2
:1019E000FFF71AFD18B149210AA000F0C8FB0494C2
:1019F00004A907480594FFF794FC002803D0502160
:101A000004A000F0BCFB06B010BD0000002C01409B
:101A1000500400202E2E2F5372632F74696D2E6395
:101A20000000000010B5164886B04FF08041002439
:101A3000C0E900148460C46004618461FFF799FC0C
:101A400018B162210FA000F09AFB4FF48050009073
:101A500069460B48FFF7E0FC18B1682109A000F0C7
:101A60008EFB049404A906480594FFF75AFC00284D
:101A700003D06F2103A000F082FB06B010BD000070
:101A8000900400202E2E2F5372632F74696D2E63E5
:101A90000000000010B5164886B014490024C0E9C3
:101AA00000148460C46004618461FFF762FC18B1B3
:101AB000812110A000F063FB4FF480500090694634
:101AC0000B48FFF7A9FC18B187210AA000F057FBCB
:101AD000049404A906480594FFF723FC002803D0CA
:101AE0008E2104A000F04BFB06B010BD00040040A6
:101AF000D00400202E2E2F5372632F74696D2E6335
:101B00000000000010B5164886B014490024C0E952
:101B100000148460C46004618461FFF72AFC18B17A
:101B2000A02110A000F02BFB4FF4805000906946DC
:101B30000B48FFF771FC18B1A6210AA000F01FFBAB
:101B4000049404A906480594FFF7EBFB002803D092
:101B5000AD2104A000F013FB06B010BD000800404A
:101B6000100500202E2E2F5372632F74696D2E6383
:101B7000000000000D4810B50B4901604FF4E13141
:101B80004160002181600C22C160C0E904128161C2
:101B9000C161FFF7FBFD002805D0BDE810404421DE
:101BA00003A000F0ECBA10BD003801405005002041
:101BB0002E2E2F5372632F75736172742E63000083
:101BC0000D4810B50B4901604FF4E131416000212F
:101BD00081600C22C160C0E904128161C161FFF71C
:101BE000D5FD002805D0BDE81040572103A000F026
:101BF000C6BA10BD00440040900500202E2E2F5381
:101C000072632F75736172742E6300000D4810B5F6
:101C10000B4901604FF4E1314160002181600C22E9
:101C2000C160C0E904128161C161FFF7AFFD002806
:101C300005D0BDE810406A2103A000F0A0BA10BD95
:101C400000480040D00500202E2E2F5372632F75C0
:101C5000736172742E630000FEE770470907090E76
:101C6000002806DA00F00F0000F1E02080F8141DD3
:101C7000704700F1E02080F800147047FEF772BD55
:101C8000704770470148FFF705B80000F8030020CF
:101C900038B50B46009204460022802100F010F86F
:101CA000002804D0606D40F020006065032038BD3E
:101CB00010B5406A0021C187C186FEF7E9FF10BD5B
:101CC0002DE9F0411D4617460E460446DDF8188002
:101CD00035E0681C33D02DB1FEF764FCA0EB0800A2
:101CE000A8422CD32068416821F0E001416060687F
:101CF000B0F5827F0BD1A068B0F5004F02D0B0F5EF
:101D0000806F04D12068016821F040010160A06A61
:101D1000B0F5005F0AD1206801684DF6FF721140EE
:101D200001602068016841F400510160012084F8DD
:101D30005100002084F850000320BDE8F0812068A5
:101D4000806836EA000004D00020B842C1D10020EB
:101D5000F3E70120F9E7704710B5FEF729FCBDE86D
:101D60001040FFF7D8BA00000D48016841F00101AA
:101D7000016041680B4A1140416001680A4A114004
:101D80000160016821F480210160416821F4FE01B5
:101D900041604FF41F0181600449C003086070472F
:101DA000001002400000FFF8FFFFF6FE08ED00E023
:101DB0000148FFF7ABBB0000500400200148FFF7CB
:101DC000A5BB0000500400200148FFF79FBB0000A6
:101DD000900400200148FFF799BB0000D0040020C8
:101DE0000148FFF793BB000010050020F0B5026822
:101DF000164B174C174D4FF08047984205D0B8420C
:101E000003D0A04201D0A84203D122F070064A6854
:101E10003243984205D0B84203D0A04201D0A84234
:101E200003D122F44074CA68224322F080044A6934
:101E3000224302608A68C2620A688262984201D1C3
:101E40000969016301214161F0BD0000002C0140DE
:101E5000000400400008004010B5846842EA0322F4
:101E600024F47F440A432243826010BD826822F03A
:101E700070020A4342F007018160704710B5036A9F
:101E8000046A24F001040462846924F0F00444EA42
:101E9000021423F00A020A438461026210BD10B5E5
:101EA000036A23F0100303628369046A23F4704316
:101EB00043EA023224F0A00343EA01118261016285
:101EC00010BD10B5406A0021C185C184FFF7D5FB64
:101ED00010BD0168CA6822F49072CA6001684A693C
:101EE00022F001024A61202180F83A10704710B5B3
:101EF00090F83A10222901D0022010BD8168B1F576
:101F0000805F11D00169002901681FD0496801F084
:101F10007F03816A4A1C82620B70C18D491E0904CD
:101F2000090CC18518D02BE00269816A002A026879
:101F3000526805D0D2B20A80816A491C8162ECE7FE
:101F4000C2F308020A80816A891CF7E74A68816A3D
:101F50004B1C83620A70E0E70168CA6822F0200225
:101F6000CA600168CA6822F48072CA6001684A695E
:101F700022F001024A61202180F83A10FFF796FC16
:101F8000002010BD2DE9F041044600680169E268B7
:101F900021F44051114301612169A068084361693E
:101FA00008432168CA6841F20C639A430243CA603D
:101FB00020684169A26921F44071114341614C4993
:101FC00020686425322688423CD1FEF799FC00EB5C
:101FD000C00101EB001061688900B0FBF1F7FEF76A
:101FE0008FFC00EBC00101EB00106168B046890076
:101FF000B0FBF1F0B0FBF5F06FF01801484307EBD0
:10200000800106EB0110B0FBF5F000F0F006FEF7E2
:1020100077FC00EBC00101EB001061688900B0FBA8
:10202000F1F0B0FBF5F006EB0016FEF769FC00EBF3
:10203000C00101EB001061688900B0FBF1F7FEF709
:102040005FFC3BE0FEF74CFC00EBC00101EB001035
:1020500061688900B0FBF1F7FEF742FC00EBC001BC
:1020600001EB00106168B0468900B0FBF1F0B0FBF5
:10207000F5F06FF01801484307EB800106EB011003
:10208000B0FBF5F000F0F006FEF72AFC00EBC00113
:1020900001EB001061688900B0FBF1F0B0FBF5F0D6
:1020A00006EB0016FEF71CFC00EBC00101EB001074
:1020B00061688900B0FBF1F7FEF712FC00EBC0018C
:1020C00001EB001061688900B0FBF1F0B0FBF5F0A6
:1020D0006FF01801484307EB800108EB0110B0FBDB
:1020E000F5F0216800F00F0030448860BDE8F08111
:1020F0000038014090F83910212901D002207047A2
:102100008168B1F5805F016A0BD04A1C02620268E7
:1021100009785160C18C491E0904090CC1840ED094
:1021200017E009880268C1F30801516001690029BC
:10213000016A02D0491C0162ECE7891CFBE70168D7
:10214000CA6822F08002CA600068C16841F040019C
:10215000C1600020704700000148FFF78FBA0000FF
:10216000500500200148FFF789BA000090050020C3
:102170000148FFF783BA0000D0050020FEE7FEE724
:1021800010B5002211462720FEF7B8FA2720FEF7E7
:10219000A9FA002211462620FEF7B0FA2620FEF703
:1021A000A1FA002211462520FEF7A8FA2520FEF705
:1021B00099FA002211461E20FEF7A0FA1E20FEF713
:1021C00091FA002211461D20FEF798FA1D20FEF715
:1021D00089FA002211461C20FEF790FA1C20FEF717
:1021E00081FA002211461B20FEF788FA1B20FEF719
:1021F00079FA002211461920FEF780FA1920FEF71D
:1022000071FA002211462320FEF778FABDE810404B
:102210002320FEF767BA30B58FB001210804CDE95D
:1022200000100024029402250491CDE907504FF4D8
:10223000E01009906846FEF7A9FB00B1FEE70F2009
:10224000CDE90A054FF48060CDE90C4002210AA8CF
:102250000E94FEF795FA00B1FEE7FEF73BFB4FF454
:102260007A71B0FBF1F0FFF742F80420FFF732F883
:1022700000221146501EFEF741FA0FB030BD10B5D6
:102280000A000189436800D001221846FEF784F94C
:10229000BDE810400520FEF707B8F8B50D461E460C
:1022A000174604460021FFF7EAFF0120FDF7FCFF77
:1022B00003208DF80000C823012269462068FEF73C
:1022C00069FE280A8DF80000C823012269462068AB
:1022D000FEF760FE8DF80050C82301226946206891
:1022E000FEF758FEC6EB061043003246394620681A
:1022F000FEF7A8FD01212046FFF7C1FF0120FDF7F1
:10230000D3FF0020F8BD2DE9FC410E4600241F46F6
:10231000904605462146FFF7B2FF0120FDF7C4FFB6
:1023200003208DF80000C823012269462868FEF7C3
:1023300031FE300A8DF80000C82301226946286862
:10234000FEF728FE8DF80060C82301226946286840
:10235000FEF720FE10E09623042201A92868FEF76C
:1023600071FD01989DF8071000BA20F0FF000843A6
:1023700048F82400641CA4B2BC42ECD301212846D6
:10238000FFF77DFF0120FDF78FFF0020BDE8FC81F6
:102390002DE9FC410E4600241F4690460546214685
:1023A000FFF76DFF0120FDF77FFF03208DF8000090
:1023B000C823012269462868FEF7ECFD300A8DF833
:1023C0000000C823012269462868FEF7E3FD8DF866
:1023D0000060C823012269462868FEF7DBFD0CE097
:1023E0009623022201A92868FEF72CFDBDF80400FF
:1023F00041BA28F81410641CA4B2BC42F0D30121E5
:102400002846FFF73CFF0120FDF74EFF0020BDE806
:10241000FC81F8B50E461D46174604460021FFF71D
:102420002EFF0120FDF740FF02208DF80000C82399
:10243000012269462068FEF7ADFD300A8DF80000E4
:10244000C823012269462068FEF7A4FD8DF80060CC
:10245000C823012269462068FEF79CFD322005FB57
:1024600000F32A4639462068FEF794FD0420FDF764
:102470001BFF01212046FFF702FF0121204600F04B
:10248000C7F8F8BD2DE9FC410F46002498461646D2
:1024900005462146FFF7F3FE0120FDF705FF022068
:1024A0008DF80000C823012269462868FEF772FDF6
:1024B000380A8DF80000C823012269462868FEF713
:1024C00069FD8DF80070C823012269462868FEF76F
:1024D00061FD01AF13E0002056F82410C0F10302A3
:1024E000D200D1403954401C80B20428F4D33223A6
:1024F000042201A92868FEF74DFD641CA4B24445DE
:10250000E9D30420FDF7D0FE01212846FFF7B7FEEE
:102510000121284600F07CF8BDE8FC812DE9FC4152
:102520000F4600249846164605462146FFF7A7FEAB
:102530000120FDF7B9FE02208DF80000C82301221A
:1025400069462868FEF726FD380A8DF80000C82382
:10255000012269462868FEF71DFD8DF80070C8232A
:10256000012269462868FEF715FD01AF13E000203F
:1025700036F81410C0F10102D200D1403954401C89
:1025800080B20228F4D33223022201A92868FEF780
:1025900001FD641CA4B24445E9D30420FDF784FE88
:1025A00001212846FFF76BFE0121284600F030F894
:1025B000BDE8FC8110B504460121FFF760FE20460E
:1025C00000F043F8204600F006F82046BDE8104031
:1025D000012100F01DB81CB5044605208DF800004F
:1025E00000212046FFF74BFEC823012269462068E0
:1025F000FEF7D0FCC823012201A92068FEF722FCC7
:1026000001212046FFF73BFE9DF804001CBD0000A1
:1026100038B5044600200D468DF8000001462046DE
:10262000FFF72DFE012D0ED05FF004008DF80000A5
:10263000C823012269462068FEF7ACFC0121204630
:10264000FFF71DFE38BD0620F0E71CB5044600204C
:102650008DF80000AB208DF8040000212046FFF724
:102660000EFEC823012201A92068FEF793FCC823AF
:10267000012269462068FEF7E5FBC823012269466E
:102680002068FEF7DFFBC823012269462068FEF7B9
:10269000D9FB01212046FFF7F2FD9DF800001CBD8B
:1026A000C0E900120381704702E008C8121F08C188
:1026B000002AFAD170477047002001E001C1121FC3
:1026C000002AFBD17047000086B0FDF779FFFFF7C5
:1026D000A2FDFFF7EFF8FFF799FAFFF74BFAFFF7C4
:1026E0006FFAFFF737F9FFF70DFAFFF7D3F9FFF7A6
:1026F0005FF9FFF797F9FFF743FD324C802322463D
:1027000031496846FFF7CCFF402322462E4903A8F3
:10271000FFF7C6FF6846FFF74DFF03A8FFF74AFF24
:102720009620FDF7C1FD3E2228A13348FDF7FAFCB3
:102730003E23314A01216846FFF76BFE2E4A3E23B5
:10274000C83A01216846FFF7A8FD3F222BA1364871
:10275000FDF7E8FCA4153F23334A214603A8FFF701
:1027600058FE254A4123C832214603A8FFF795FDAC
:102770000A232E4AC9216846FFF784FE2A4A0A2303
:10278000C832C9216846FFF7BEFD284A0A2328320D
:10279000C9216846FFF776FE234A0A23F032C92191
:1027A0006846FFF7B0FD214A0A235032C921684626
:1027B000FFF7B4FE0A231E4AC9216846FFF7E8FD69
:1027C000FEE70000000C0140F8030020436167723F
:1027D000692043414E44414E2031312F31382F3250
:1027E00030313820466972737420454550726F6DE0
:1027F00020544553540000003C010020436167729F
:10280000692043414E44414E2031312F31382F321F
:10281000303138205365636F6E6420454550726FC8
:102820006D20544553540000CC02002000000020CD
:10283000E403002000000000000000000102030487
:102840000607080900000000010203046C280008C4
:102850000000002074000000A8260008E0280008FE
:1028600074000020BC090000B826000845231100B0
:1028700045232100452331004523410045235100D4
:1028800045236100452371004523810045239100C4
:10289000000000005934120058341200573412005E
:1028A00056341200553412005434120053341200BE
:1028B00052341200513412000000000059345834D0
:1028C0005734563455345434533452345134000050
:1028D00001000000100000000000000000A24A04F7
:04000005080000ED02
:00000001FF
